1003731084000121254065279     WORK RECICLOS LTDA                 BLUMENAU                      SC47332366762009100120091031331
11RUA PARA                          00354                      ITOUPAVA SECA  89030300GIVANILDO MARCELO MACHADO   000000000000
5000597312000124ISENTO        20091001SC011  0006045101P000000006270000000000000000000000000000000000000000000000000000000000N
5082639170000185250269910     20091001SC011  0006055101P000000001000000000000000000000000000000000000000000000000000000000000N
5004430100000109ISENTO        20091001SC011  0006065101P000000011200000000000000000000000000000000000000000000000000000000000N
5079025441000106251308588     20091001SC011  0006075101P000000002940000000000000000000000000000000000000000000000000000000000N
5083543041000151250582929     20091001SC011  0006085101P000000003200000000000000000000000000000000000000000000000000000000000N
5073989907000107ISENTO        20091001SC011  0006095101P000000001244000000000000000000000000000000000000000000000000000000000N
5002145793000162ISENTO        20091001SC011  0006105101P000000000330000000000000000000000000000000000000000000000000000000000N
5001452938000105253819547     20091001SC011  0006115101P000000001300000000000000000000000000000000000000000000000000000000000N
5000695578000100ISENTO        20091001SC011  0006125101P000000001350000000000000000000000000000000000000000000000000000000000N
5078666807000155ISENTO        20091001SC011  0006135101P000000007770000000000000000000000000000000000000000000000000000000000N
5000942617000126253217296     20091001SC011  0006145101P000000006350000000000000000000000000000000000000000000000000000000000N
5000942617000126253217296     20091001SC011  0006155101P000000006350000000000000000000000000000000000000000000000000000000000N
5085100519000102253716756     20091001SC011  0006165101P000000000700000000000000000000000000000000000000000000000000000000000N
5005393402000117ISENTO        20091001SC011  0006175101P000000000690000000000000000000000000000000000000000000000000000000000N
5000642468000180ISENTO        20091001SC011  0006185101P000000001450000000000000000000000000000000000000000000000000000000000N
5076551720000107250938286     20091001SC011  0006195101P000000001100000000000000000000000000000000000000000000000000000000000N
5043109784000101ISENTO        20091001SC011  0006205101P000000000405000000000000000000000000000000000000000000000000000000000N
5079370219000132ISENTO        20091001SC011  0006215101P000000000850000000000000000000000000000000000000000000000000000000000N
5095758108000154ISENTO        20091001SC011  0006225101P000000001680000000000000000000000000000000000000000000000000000000000N
5085243640000185253884462     20091001SC011  0006235101P000000004360000000000000000000000000000000000000000000000000000000000N
5007663140000865ISENTO        20091001SC011  0006245101P000000003450000000000000000000000000000000000000000000000000000000000N
5083102301000153ISENTO        20091001SC011  0006255101P000000001850000000000000000000000000000000000000000000000000000000000N
5003777341005397ISENTO        20091001SC011  0006265101P000000003200000000000000000000000000000000000000000000000000000000000N
5085120939000495ISENTO        20091001SC011  0006275101P000000000990000000000000000000000000000000000000000000000000000000000N
5085120939000495ISENTO        20091001SC011  0006285101P000000000360000000000000000000000000000000000000000000000000000000000N
5004043924000126ISENTO        20091001SC011  0006295101P000000000900000000000000000000000000000000000000000000000000000000000N
5084429869000308252263324     20091001SC011  0006305101P000000002150000000000000000000000000000000000000000000000000000000000N
5082664210000149ISENTO        20091001SC011  0006315101P000000000785000000000000000000000000000000000000000000000000000000000N
5081027021000100251787893     20091001SC011  0006325101P000000000660000000000000000000000000000000000000000000000000000000000N
5084229889000173ISENTO        20091001SC011  0006335101P000000008000000000000000000000000000000000000000000000000000000000000N
5084293430000139250124114     20091001SC011  0006345101P000000004350000000000000000000000000000000000000000000000000000000000N
5084293430000139250124114     20091001SC011  0006355101P000000004350000000000000000000000000000000000000000000000000000000000N
5007725437000131255097611     20091001SC011  0006365101P000000000890000000000000000000000000000000000000000000000000000000000N
5083241349000142250449420     20091001SC011  0006375101P000000000320000000000000000000000000000000000000000000000000000000000N
5082645904000139250212498     20091001SC011  0006385101P000000001300000000000000000000000000000000000000000000000000000000000N
5004581264000137ISENTO        20091001SC011  0006395101P000000000310000000000000000000000000000000000000000000000000000000000N
5080742109000133251701204     20091001SC011  0006405101P000000001507500000000000000000000000000000000000000000000000000000000N
5004432327000193254293387     20091001SC011  0006415101P000000001100000000000000000000000000000000000000000000000000000000000N
5005044030000113254381979     20091002SC011  0006425101P000000001990000000000000000000000000000000000000000000000000000000000N
5082636887000173250289938     20091002SC011  0006435101P000000000884000000000000000000000000000000000000000000000000000000000N
5073403230000175252766148     20091002SC011  0006445101P000000000408000000000000000000000000000000000000000000000000000000000N
5085276889000197ISENTO        20091002SC011  0006455101P000000001300000000000000000000000000000000000000000000000000000000000N
5091802041004810254845746     20091002SC011  0006465101P000000001480000000000000000000000000000000000000000000000000000000000N
5078881489000145252068114     20091002SC011  0006475101P000000001910000000000000000000000000000000000000000000000000000000000N
5078644424000186251151565     20091002SC011  0006485101P000000001930000000000000000000000000000000000000000000000000000000000N
5008184586000101ISENTO        20091002SC011  0006495101P000000001481000000000000000000000000000000000000000000000000000000000N
5007576720000149ISENTO        20091002SC011  0006505101P000000000720000000000000000000000000000000000000000000000000000000000N
5083241349000142250449420     20091002SC011  0006515101P000000003800000000000000000000000000000000000000000000000000000000000N
5083779496000170ISENTO        20091002SC011  0006525101P000000002050000000000000000000000000000000000000000000000000000000000N
5004040912000148254889611     20091002SC011  0006535101P000000005400000000000000000000000000000000000000000000000000000000000N
5083487520000106ISENTO        20091002SC011  0006545101P000000000760000000000000000000000000000000000000000000000000000000000N
5002145793000596ISENTO        20091002SC011  0006555101P000000002100000000000000000000000000000000000000000000000000000000000N
5083102301000153ISENTO        20091002SC011  0006565101P000000002250000000000000000000000000000000000000000000000000000000000N
5077075356000623ISENTO        20091002SC011  0006575101P000000000900000000000000000000000000000000000000000000000000000000000N
5010520301000108255769385     20091002SC011  0006585101P000000001250000000000000000000000000000000000000000000000000000000000N
5033069766013755ISENTO        20091002SC011  0006595101P000000003600000000000000000000000000000000000000000000000000000000000N
5082982075000180250067196     20091002SC011  0006605101P000000011340000000000000000000000000000000000000000000000000000000000N
5045989050001820250594552     20091002SC011  0006615101P000000011400000000000000000000000000000000000000000000000000000000000N
5045989050001820250594552     20091002SC011  0006625101P000000003400000000000000000000000000000000000000000000000000000000000N
5095806048000106ISENTO        20091002SC011  0006635101P000000000440000000000000000000000000000000000000000000000000000000000N
50030318820005740450055833    20091002RS011  0006646101P000000008200000000000000000000000000000000000000000000000000000000000N
5004995402000124ISENTO        20091002RS011  0006656101P000000001755000000000000000000000000000000000000000000000000000000000S
5004995402000124ISENTO        20091002RS011  0006666101P000000000540000000000000000000000000000000000000000000000000000000000N
5003850402000173ISENTO        20091002RS011  0006676949P000000001800000000000000000000000000000000000000000000000000000000000N
5080447022000133ISENTO        20091002SC011  0006685101P000000002000000000000000000000000000000000000000000000000000000000000N
5082639634000153250215390     20091002SC011  0006695101P000000001325000000000000000000000000000000000000000000000000000000000N
5003850402000173ISENTO        20091002RS011  0006706949P000000000300000000000000000000000000000000000000000000000000000000000N
5072237233000113252677552     20091005SC011  0006715101P000000001050000000000000000000000000000000000000000000000000000000000N
5008490282000164255309015     20091005SC011  0006725101P000000001900000000000000000000000000000000000000000000000000000000000N
5000002024071953ISENTO        20091005SC011  0006735101P000000000800000000000000000000000000000000000000000000000000000000000N
5073212797000164ISENTO        20091005SC011  0006745101P000000000890000000000000000000000000000000000000000000000000000000000N
5003658436000160ISENTO        20091005SC011  0006755101P000000001330000000000000000000000000000000000000000000000000000000000N
5000065638433953ISENTO        20091005SC011  0006765101P000000001150000000000000000000000000000000000000000000000000000000000N
5000859826000372254055192     20091005SC011  0006775101P000000001490000000000000000000000000000000000000000000000000000000000N
5084293430000139250124114     20091005SC011  0006785101P000000001350000000000000000000000000000000000000000000000000000000000N
5000034520554934ISENTO        20091005SC011  0006795101P000000000900000000000000000000000000000000000000000000000000000000000N
5002378660000136ISENTO        20091005SC011  0006805101P000000003300000000000000000000000000000000000000000000000000000000000N
5083545780000182ISENTO        20091005SC011  0006815101P000000001450000000000000000000000000000000000000000000000000000000000N
5082639477000186ISENTO        20091005SC011  0006825101P000000003000000000000000000000000000000000000000000000000000000000000N
5007389050000151ISENTO        20091005SC011  0006835101P000000001850000000000000000000000000000000000000000000000000000000000N
5001005030000153253221293     20091005SC011  0006845101P000000003720000000000000000000000000000000000000000000000000000000000N
5001082899000100ISENTO        20091005SC011  0006855101P000000003300000000000000000000000000000000000000000000000000000000000N
5009317217000447255659709     20091005SC011  0006865101P000000000850000000000000000000000000000000000000000000000000000000000N
5003663060000182254781217     20091005SC011  0006875101P000000000750000000000000000000000000000000000000000000000000000000000N
5003731084000121254065279     20091005SC011  0006881102P000000074844000000000000000000000000000000000000000000000000000000000N
5081018202000162ISENTO        20091005SC011  0006895101P000000000900000000000000000000000000000000000000000000000000000000000N
5000760773000176ISENTO        20091005SC011  0006905101P000000001100000000000000000000000000000000000000000000000000000000000N
5004685635000120ISENTO        20091005SC011  0006915101P000000001330000000000000000000000000000000000000000000000000000000000N
5008283725000146ISENTO        20091005SC011  0006925101P000000004680000000000000000000000000000000000000000000000000000000000N
5005044030000113254381979     20091005SC011  0006935101P000000004720000000000000000000000000000000000000000000000000000000000N
5081875973000176ISENTO        20091005SC011  0006945101P000000006000000000000000000000000000000000000000000000000000000000000N
5003960819000199ISENTO        20091005SC011  0006955554P000000014140000000000000000000000000000000000000000000000000000000000N
5086375789000180ISENTO        20091005SC011  0006965101P000000011940000000000000000000000000000000000000000000000000000000000N
5002515226000150253715962     20091006SC011  0006975101P000000002350000000000000000000000000000000000000000000000000000000000N
5081336398000133251818616     20091006SC011  0006985101P000000000800000000000000000000000000000000000000000000000000000000000N
5004137657000156ISENTO        20091006SC011  0006995101P000000001050000000000000000000000000000000000000000000000000000000000N
5000468476000151253033764     20091006SC011  0007005101P000000001090000000000000000000000000000000000000000000000000000000000N
5095758108000154ISENTO        20091006SC011  0007015101P000000000730000000000000000000000000000000000000000000000000000000000N
5006008402000119ISENTO        20091006SC011  0007025101P000000000750000000000000000000000000000000000000000000000000000000000N
5010863812000114ISENTO        20091006SC011  0007035101P000000000300000000000000000000000000000000000000000000000000000000000N
5082639477000186ISENTO        20091006SC011  0007045101P000000000525000000000000000000000000000000000000000000000000000000000N
5081767154000105ISENTO        20091006SC011  0007055101P000000000880000000000000000000000000000000000000000000000000000000000N
5083779496000170ISENTO        20091006SC011  0007065101P000000001200000000000000000000000000000000000000000000000000000000000N
5008766334000182ISENTO        20091006SC011  0007075101P000000001050000000000000000000000000000000000000000000000000000000000N
5000217640000158ISENTO        20091006SC011  0007085101P000000008650000000000000000000000000000000000000000000000000000000000N
5008434595000103255298870     20091006SC011  0007095101P000000000990000000000000000000000000000000000000000000000000000000000N
50001696040001661570027061    20091006RS011  0007106101P000000001250000000000000000000000000000000000000000000000000000000000N
5086375789000180ISENTO        20091006SC011  0007115101P000000000300000000000000000000000000000000000000000000000000000000000N
5095874731000172252659279     20091006SC011  0007125101P000000000010000000000000000000000000000000000000000000000000000000000S
5010601747000159ISENTO        20091006SC011  0007135101P000000001230000000000000000000000000000000000000000000000000000000000N
50029374250001570290333148    20091006RS011  0007146101P000000000850000000000000000000000000000000000000000000000000000000000N
5004995402000124ISENTO        20091006RS011  0007156949P000000009800000000000000000000000000000000000000000000000000000000000N
5004995402000124ISENTO        20091006RS011  0007166101P000000001575000000000000000000000000000000000000000000000000000000000N
5003850402000173ISENTO        20091006RS011  0007176949P000000002000000000000000000000000000000000000000000000000000000000000N
5004329429000188ISENTO        20091006SC011  0007185101P000000000350000000000000000000000000000000000000000000000000000000000N
5006099381000194254840540     20091006SC011  0007195101P000000000500000000000000000000000000000000000000000000000000000000000N
5010693693000107255822464     20091006SC011  0007205101P000000001900000000000000000000000000000000000000000000000000000000000N
5082639634000153250215390     20091006SC011  0007215101P000000000600000000000000000000000000000000000000000000000000000000000N
5082749987000106ISENTO        20091006SC011  0007225101P000000002200000000000000000000000000000000000000000000000000000000000N
5083102798000100ISENTO        20091007SC011  0007235101P000000001200000000000000000000000000000000000000000000000000000000000N
5083102798000100ISENTO        20091007SC011  0007245101P000000001200000000000000000000000000000000000000000000000000000000000S
5083102798000100ISENTO        20091007SC011  0007255101P000000000650000000000000000000000000000000000000000000000000000000000N
5083102798000100ISENTO        20091007SC011  0007265101P000000006860000000000000000000000000000000000000000000000000000000000N
5083102798000100ISENTO        20091007SC011  0007275101P000000001250000000000000000000000000000000000000000000000000000000000N
5083177071000191ISENTO        20091007SC011  0007285101P000000002160000000000000000000000000000000000000000000000000000000000N
5082645904000139250212498     20091007SC011  0007295101P000000001300000000000000000000000000000000000000000000000000000000000N
5002308456000149253610010     20091007SC011  0007305101P000000002780000000000000000000000000000000000000000000000000000000000S
5084307974000102252920066     20091007SC011  0007315101P000000008000000000000000000000000000000000000000000000000000000000000N
5002308456000149253610010     20091007SC011  0007325101P000000011030000000000000000000000000000000000000000000000000000000000N
5085120939000495ISENTO        20091007SC011  0007335101P000000004920000000000000000000000000000000000000000000000000000000000N
5001890732000167ISENTO        20091007SC011  0007345101P000000000380000000000000000000000000000000000000000000000000000000000N
5085326544000605ISENTO        20091007SC011  0007355101P000000001020000000000000000000000000000000000000000000000000000000000N
5000056633000111ISENTO        20091007SC011  0007365101P000000000680000000000000000000000000000000000000000000000000000000000N
5082624776000228ISENTO        20091007SC011  0007375101P000000002950000000000000000000000000000000000000000000000000000000000N
5082636887000173250289938     20091007SC011  0007385101P000000000560000000000000000000000000000000000000000000000000000000000N
5001845556000141ISENTO        20091007SC011  0007395101P000000000800000000000000000000000000000000000000000000000000000000000N
5072133887000105ISENTO        20091007SC011  0007405101P000000000850000000000000000000000000000000000000000000000000000000000N
5004050257000109254115314     20091007SC011  0007415101P000000001300000000000000000000000000000000000000000000000000000000000N
5084307974000102252920066     20091007SC011  0007425101P000000014850000000000000000000000000000000000000000000000000000000000N
5084307974000102252920066     20091007SC011  0007435101P000000019550000000000000000000000000000000000000000000000000000000000N
5004143008000672254321704     20091007SC011  0007445101P000000000800000000000000000000000000000000000000000000000000000000000N
5083170654000190ISENTO        20091007SC011  0007455101P000000002100000000000000000000000000000000000000000000000000000000000N
5085120939000495ISENTO        20091007SC011  0007465101P000000005670000000000000000000000000000000000000000000000000000000000N
5005051991000155254440207     20091007SC011  0007475101P000000000290000000000000000000000000000000000000000000000000000000000N
5004050257000109254115314     20091007SC011  0007485101P000000001300000000000000000000000000000000000000000000000000000000000N
5085120939000495ISENTO        20091007SC011  0007495101P000000002460000000000000000000000000000000000000000000000000000000000N
5005934265000180254654991     20091007SC011  0007505101P000000001530000000000000000000000000000000000000000000000000000000000S
5005393402000117ISENTO        20091007SC011  0007515101P000000002300000000000000000000000000000000000000000000000000000000000N
5008417804000100ISENTO        20091007SC011  0007525101P000000000720000000000000000000000000000000000000000000000000000000000N
5083102798000100ISENTO        20091007SC011  0007535101P000000000600000000000000000000000000000000000000000000000000000000000N
5007855180000132ISENTO        20091007SC011  0007545101P000000002660000000000000000000000000000000000000000000000000000000000N
5007389050000151ISENTO        20091007SC011  0007555101P000000004500000000000000000000000000000000000000000000000000000000000N
5083102483000162ISENTO        20091008SC011  0007565101P000000001050000000000000000000000000000000000000000000000000000000000N
5083102798000100ISENTO        20091008SC011  0007575101P000000001680000000000000000000000000000000000000000000000000000000000N
5083102483000162ISENTO        20091008SC011  0007585101P000000000660000000000000000000000000000000000000000000000000000000000N
5002457701000180ISENTO        20091008SC011  0007595101P000000001670000000000000000000000000000000000000000000000000000000000N
5003537774000144ISENTO        20091008SC011  0007605101P000000000700000000000000000000000000000000000000000000000000000000000N
5002962103000168ISENTO        20091008SC011  0007615101P000000001050000000000000000000000000000000000000000000000000000000000N
5002575998000188253666406     20091008SC011  0007625101P000000001350000000000000000000000000000000000000000000000000000000000N
5006980064010730ISENTO        20091008SC011  0007635101P000000001920000000000000000000000000000000000000000000000000000000000N
5079233672000105252199782     20091008SC011  0007645101P000000029200000000000000000000000000000000000000000000000000000000000N
5008334826000107ISENTO        20091008SC011  0007655101P000000004400000000000000000000000000000000000000000000000000000000000N
5005934265000180254654991     20091008SC011  0007665101P000000001980000000000000000000000000000000000000000000000000000000000N
5005810004000159254614299     20091008SC011  0007675101P000000001200000000000000000000000000000000000000000000000000000000000N
5083552414000150ISENTO        20091008SC011  0007685101P000000000700000000000000000000000000000000000000000000000000000000000N
5079302519000184ISENTO        20091008SC011  0007695101P000000001690000000000000000000000000000000000000000000000000000000000N
5082641051000167ISENTO        20091008SC011  0007705101P000000000520000000000000000000000000000000000000000000000000000000000N
5002999064000173ISENTO        20091008SC011  0007715101P000000000670000000000000000000000000000000000000000000000000000000000N
5007330703000127ISENTO        20091008SC011  0007725101P000000001050000000000000000000000000000000000000000000000000000000000N
5091802041004810254845746     20091008SC011  0007735101P000000003300000000000000000000000000000000000000000000000000000000000N
5008098506000197ISENTO        20091008SC011  0007745101P000000000330000000000000000000000000000000000000000000000000000000000N
5002145793000324ISENTO        20091008SC011  0007755101P000000000800000000000000000000000000000000000000000000000000000000000N
5002683108000151ISENTO        20091008SC011  0007765101P000000000550000000000000000000000000000000000000000000000000000000000N
5007314075000196ISENTO        20091008SC011  0007775101P000000001450000000000000000000000000000000000000000000000000000000000N
5005092694000158ISENTO        20091008SC011  0007785101P000000000400000000000000000000000000000000000000000000000000000000000N
5083616979000154ISENTO        20091008SC011  0007795101P000000000700000000000000000000000000000000000000000000000000000000000N
5080696586000100254889310     20091008SC011  0007805101P000000001630000000000000000000000000000000000000000000000000000000000N
5001966810000160ISENTO        20091008SC011  0007815101P000000000850000000000000000000000000000000000000000000000000000000000N
5001362431000160255066899     20091008SC011  0007825101P000000000600000000000000000000000000000000000000000000000000000000000N
5085326544000524ISENTO        20091008SC011  0007835101P000000001350000000000000000000000000000000000000000000000000000000000N
5002696662000173ISENTO        20091009SC011  0007845101P000000000950000000000000000000000000000000000000000000000000000000000N
5082639477000186ISENTO        20091009SC011  0007855101P000000006000000000000000000000000000000000000000000000000000000000000N
5077500049012810ISENTO        20091009SC011  0007865101P000000000900000000000000000000000000000000000000000000000000000000000N
5083779496000170ISENTO        20091009SC011  0007875101P000000000900000000000000000000000000000000000000000000000000000000000N
5005421267000176ISENTO        20091009SC011  0007885101P000000001800000000000000000000000000000000000000000000000000000000000N
50946160590003140290411386    20091009RS011  0007896101P000000005110000000000000000000000000000000000000000000000000000000000N
50913686700001100290150558    20091009RS011  0007906101P000000001600000000000000000000000000000000000000000000000000000000000N
5004288847000174254187358     20091009SC011  0007915101P000000004600000000000000000000000000000000000000000000000000000000000N
5005931919000112254689639     20091009SC011  0007925101P000000000750000000000000000000000000000000000000000000000000000000000N
50886167760003430870084364    20091009RS011  0007936949P000000005400000000000000000000000000000000000000000000000000000000000N
5003724183000186ISENTO        20091009SC011  0007945101P000000004830000000000000000000000000000000000000000000000000000000000N
5034028316002823ISENTO        20091009SC011  0007955101P000000009000000000000000000000000000000000000000000000000000000000000N
5079375309000116ISENTO        20091009SC011  0007965101P000000011600000000000000000000000000000000000000000000000000000000000N
50030318820005740450055833    20091009RS011  0007976101P000000013100000000000000000000000000000000000000000000000000000000000N
50030318820005740450055833    20091009RS011  0007986101P000000001950000000000000000000000000000000000000000000000000000000000N
5081875973000176ISENTO        20091009SC011  0007995101P000000000700000000000000000000000000000000000000000000000000000000000N
5003967047000117ISENTO        20091009SC011  0008005101P000000000620000000000000000000000000000000000000000000000000000000000N
5005060142000168254403506     20091009SC011  0008015101P000000000582000000000000000000000000000000000000000000000000000000000N
5004995402000124ISENTO        20091009RS011  0008026101P000000000315000000000000000000000000000000000000000000000000000000000N
5081336398000133251818616     20091009SC011  0008035101P000000004050000000000000000000000000000000000000000000000000000000000N
5003850402000173ISENTO        20091009RS011  0008046949P000000007000000000000000000000000000000000000000000000000000000000000N
5006218282000184254750982     20091009SC011  0008055101P000000001900000000000000000000000000000000000000000000000000000000000N
5007573627000180255045832     20091009SC011  0008065101P000000001650000000000000000000000000000000000000000000000000000000000N
5095806048000106ISENTO        20091013SC011  0008075101P000000000330000000000000000000000000000000000000000000000000000000000N
5000053132467987ISENTO        20091013SC011  0008085101P000000000800000000000000000000000000000000000000000000000000000000000N
5003724183000186ISENTO        20091013SC011  0008095101P000000001060000000000000000000000000000000000000000000000000000000000N
5081526915000137ISENTO        20091013SC011  0008105101P000000001250000000000000000000000000000000000000000000000000000000000N
5082658675000197ISENTO        20091013SC011  0008115101P000000000700000000000000000000000000000000000000000000000000000000000N
5004432327000193254293387     20091013SC011  0008125101P000000001100000000000000000000000000000000000000000000000000000000000N
5007855180000132ISENTO        20091013SC011  0008135101P000000001550000000000000000000000000000000000000000000000000000000000N
5002145793000596ISENTO        20091013SC011  0008145101P000000000800000000000000000000000000000000000000000000000000000000000N
5008680018000193ISENTO        20091013SC011  0008155101P000000000700000000000000000000000000000000000000000000000000000000000N
5083798868000106ISENTO        20091013SC011  0008165101P000000000207000000000000000000000000000000000000000000000000000000000N
5000005068505951ISENTO        20091013SC011  0008175101P000000001050000000000000000000000000000000000000000000000000000000000N
5080938715000129254661963     20091013SC011  0008185101P000000001980000000000000000000000000000000000000000000000000000000000N
5002015549000185253559758     20091013SC011  0008195101P000000000350000000000000000000000000000000000000000000000000000000000N
5002295031000142ISENTO        20091013SC011  0008205101P000000000800000000000000000000000000000000000000000000000000000000000N
5078644424000186251151565     20091013SC011  0008215101P000000001950000000000000000000000000000000000000000000000000000000000N
5000055620000128ISENTO        20091013SC011  0008225101P000000000850000000000000000000000000000000000000000000000000000000000N
5003724183000186ISENTO        20091013SC011  0008235101P000000001600000000000000000000000000000000000000000000000000000000000N
5003916139000178254064957     20091013SC011  0008245101P000000001000000000000000000000000000000000000000000000000000000000000N
5083545749000141ISENTO        20091013SC011  0008255101P000000001980000000000000000000000000000000000000000000000000000000000N
5003658436000160ISENTO        20091013SC011  0008265101P000000001050000000000000000000000000000000000000000000000000000000000N
5082982075000180250067196     20091013SC011  0008275101P000000003175000000000000000000000000000000000000000000000000000000000N
5030508345000464254481698     20091013SC011  0008285101P000000001780000000000000000000000000000000000000000000000000000000000N
5007239054000153ISENTO        20091013SC011  0008295101P000000002750000000000000000000000000000000000000000000000000000000000N
5083543546000116ISENTO        20091013SC011  0008305101P000000001170000000000000000000000000000000000000000000000000000000000N
5082636820000139250210754     20091013SC011  0008315101P000000001440000000000000000000000000000000000000000000000000000000000N
5093088342003101252981545     20091013SC011  0008325101P000000000300000000000000000000000000000000000000000000000000000000000N
5091802041004810254845746     20091013SC011  0008335101P000000000700000000000000000000000000000000000000000000000000000000000N
5088616776000181029000386     20091013RS011  0008346949P000000002000000000000000000000000000000000000000000000000000000000000N
5089088462000116ISENTO        20091013RS011  0008356101P000000004400000000000000000000000000000000000000000000000000000000000N
50946160590003140290411386    20091013RS011  0008366101P000000001080000000000000000000000000000000000000000000000000000000000N
5004995402000124ISENTO        20091013RS011  0008376101P000000000810000000000000000000000000000000000000000000000000000000000N
5003850402000173ISENTO        20091013RS011  0008386949P000000010000000000000000000000000000000000000000000000000000000000000N
5008966535000123255439997     20091013SC011  0008395101P000000000800000000000000000000000000000000000000000000000000000000000N
5005092694000158ISENTO        20091013SC011  0008405101P000000000350000000000000000000000000000000000000000000000000000000000N
5078685344000179ISENTO        20091013PR011  0008416101P000000001900000000000000000000000000000000000000000000000000000000000N
5005010190000141254377025     20091013SC011  0008425101P000000001600000000000000000000000000000000000000000000000000000000000N
5004531354000113254447899     20091013SC011  0008435101P000000000300000000000000000000000000000000000000000000000000000000000N
5008088854000183255232411     20091013SC011  0008445101P000000000510000000000000000000000000000000000000000000000000000000000N
5082640533000100ISENTO        20091013SC011  0008455101P000000000380000000000000000000000000000000000000000000000000000000000N
5005343620000147ISENTO        20091013SC011  0008465101P000000000680000000000000000000000000000000000000000000000000000000000N
5007672263000196ISENTO        20091013SC011  0008475101P000000001050000000000000000000000000000000000000000000000000000000000N
5073219974000134ISENTO        20091013SC011  0008485101P000000000570000000000000000000000000000000000000000000000000000000000N
5007389050000151ISENTO        20091013SC011  0008495101P000000010700000000000000000000000000000000000000000000000000000000000N
5084229889000173ISENTO        20091013SC011  0008505101P000000003450000000000000000000000000000000000000000000000000000000000N
5005346894000190ISENTO        20091014SC011  0008515101P000000002150000000000000000000000000000000000000000000000000000000000N
5095806071000192ISENTO        20091014SC011  0008525101P000000000300000000000000000000000000000000000000000000000000000000000N
5004346918000148254207294     20091014SC011  0008535101P000000002200000000000000000000000000000000000000000000000000000000000N
5003897029000297ISENTO        20091014SC011  0008545101P000000000720000000000000000000000000000000000000000000000000000000000N
5004390197000173ISENTO        20091014SC011  0008555101P000000001620000000000000000000000000000000000000000000000000000000000N
5082623992000178ISENTO        20091014SC011  0008565101P000000001400000000000000000000000000000000000000000000000000000000000N
5003254733000140ISENTO        20091014SC011  0008575101P000000000950000000000000000000000000000000000000000000000000000000000N
5076869809000116ISENTO        20091014SC011  0008585101P000000001660000000000000000000000000000000000000000000000000000000000N
5082636820000139250210754     20091014SC011  0008595101P000000000520000000000000000000000000000000000000000000000000000000000N
5083549493000140ISENTO        20091014SC011  0008605101P000000001360000000000000000000000000000000000000000000000000000000000N
5081386518000107ISENTO        20091014SC011  0008615101P000000000900000000000000000000000000000000000000000000000000000000000N
5002779538000171253684870     20091014SC011  0008625101P000000002770000000000000000000000000000000000000000000000000000000000N
5002779538000171253684870     20091014SC011  0008635101P000000002770000000000000000000000000000000000000000000000000000000000N
5007576720000149ISENTO        20091014SC011  0008645101P000000000350000000000000000000000000000000000000000000000000000000000N
5079233672000105252199782     20091014SC011  0008655101P000000010530000000000000000000000000000000000000000000000000000000000N
5082639477000186ISENTO        20091014SC011  0008665101P000000000690000000000000000000000000000000000000000000000000000000000N
5010708759000187255823533     20091014SC011  0008675101P000000002120000000000000000000000000000000000000000000000000000000000N
50061228560001160290421012    20091014RS011  0008686101P000000002800000000000000000000000000000000000000000000000000000000000N
5003850402000173ISENTO        20091014RS011  0008696949P000000002000000000000000000000000000000000000000000000000000000000000N
5008927274000132ISENTO        20091014SC011  0008705101P000000000350000000000000000000000000000000000000000000000000000000000N
5081336398000133251818616     20091014SC011  0008715101P000000000800000000000000000000000000000000000000000000000000000000000N
5006008402000119ISENTO        20091014SC011  0008725101P000000000750000000000000000000000000000000000000000000000000000000000N
5084307974000102252920066     20091014SC011  0008735101P000000004800000000000000000000000000000000000000000000000000000000000N
5004896732000162254955410     20091014SC011  0008745101P000000000750000000000000000000000000000000000000000000000000000000000N
5000374121000101252982215     20091014SC011  0008755101P000000000700000000000000000000000000000000000000000000000000000000000N
5000818505000168253142245     20091014SC011  0008765101P000000001820000000000000000000000000000000000000000000000000000000000N
5004094517000148ISENTO        20091014SC011  0008775101P000000001290000000000000000000000000000000000000000000000000000000000N
5036035595002020ISENTO        20091014SC011  0008785101P000000014550000000000000000000000000000000000000000000000000000000000N
5008598561000146255324448     20091014SC011  0008795101P000000000990000000000000000000000000000000000000000000000000000000000N
5001966810000160ISENTO        20091014SC011  0008805101P000000000720000000000000000000000000000000000000000000000000000000000N
5004043924000126ISENTO        20091014SC011  0008815101P000000001250000000000000000000000000000000000000000000000000000000000S
5082636820000139250210754     20091015SC011  0008825101P000000000540000000000000000000000000000000000000000000000000000000000N
5085243640000185253884462     20091015SC011  0008835101P000000002150000000000000000000000000000000000000000000000000000000000N
5001572963000122253370744     20091015SC011  0008845101P000000001090000000000000000000000000000000000000000000000000000000000N
5004329429000188ISENTO        20091015SC011  0008855101P000000000350000000000000000000000000000000000000000000000000000000000N
5010405613000162ISENTO        20091015SC011  0008865101P000000000350000000000000000000000000000000000000000000000000000000000N
5082639477000186ISENTO        20091015SC011  0008875101P000000001500000000000000000000000000000000000000000000000000000000000N
5001614582000169253401917     20091015SC011  0008885101P000000001280000000000000000000000000000000000000000000000000000000000N
5005393402000117ISENTO        20091015SC011  0008895101P000000001400000000000000000000000000000000000000000000000000000000000S
5005393402000117ISENTO        20091015SC011  0008905101P000000001359000000000000000000000000000000000000000000000000000000000N
5084429869000308252263324     20091015SC011  0008915101P000000000900000000000000000000000000000000000000000000000000000000000N
5003603595000915ISENTO        20091015SC011  0008925101P000000002500000000000000000000000000000000000000000000000000000000000N
5010708759000187255823533     20091015SC011  0008935101P000000001800000000000000000000000000000000000000000000000000000000000N
5005810004000159254614299     20091015SC011  0008945101P000000001200000000000000000000000000000000000000000000000000000000000N
5004137811000190ISENTO        20091015SC011  0008955101P000000000978900000000000000000000000000000000000000000000000000000000N
5002982209000123253859344     20091015SC011  0008965101P000000000300000000000000000000000000000000000000000000000000000000000N
5078665155000134251158888     20091015SC011  0008975101P000000000700000000000000000000000000000000000000000000000000000000000N
5082649179000177ISENTO        20091015SC011  0008985101P000000000650000000000000000000000000000000000000000000000000000000000N
5095874731000172252659279     20091015SC011  0008995101P000000001000000000000000000000000000000000000000000000000000000000000N
5004043924000126ISENTO        20091015SC011  0009005101P000000000900000000000000000000000000000000000000000000000000000000000N
5003560643000188ISENTO        20091015SC011  0009015101P000000000400000000000000000000000000000000000000000000000000000000000N
5005343620000147ISENTO        20091015SC011  0009025101P000000000700000000000000000000000000000000000000000000000000000000000N
5005887809000109254672671     20091015SC011  0009035101P000000000700000000000000000000000000000000000000000000000000000000000N
5007663140000865ISENTO        20091015SC011  0009045101P000000000595000000000000000000000000000000000000000000000000000000000N
5095806048000106ISENTO        20091015SC011  0009055101P000000000320000000000000000000000000000000000000000000000000000000000N
5000043233660944ISENTO        20091016SC011  0009065101P000000002520000000000000000000000000000000000000000000000000000000000N
5081336398000133251818616     20091016SC011  0009075101P000000000800000000000000000000000000000000000000000000000000000000000N
5008715748000182255361980     20091016SC011  0009085101P000000002324900000000000000000000000000000000000000000000000000000000N
5001560013000188ISENTO        20091016SC011  0009095101P000000000570000000000000000000000000000000000000000000000000000000000N
5004728931000161254317359     20091016SC011  0009105101P000000001350000000000000000000000000000000000000000000000000000000000N
5080444771000107251625575     20091016SC011  0009115101P000000000990000000000000000000000000000000000000000000000000000000000N
5008283725000146ISENTO        20091016SC011  0009125101P000000002480000000000000000000000000000000000000000000000000000000000N
5095844999000161252605845     20091016SC011  0009135101P000000000850000000000000000000000000000000000000000000000000000000000N
5001796973000141253521580     20091016SC011  0009145101P000000000380000000000000000000000000000000000000000000000000000000000N
5010693693000107255822464     20091016SC011  0009155101P000000001900000000000000000000000000000000000000000000000000000000000N
5009300894000100255671920     20091016SC011  0009165101P000000000650000000000000000000000000000000000000000000000000000000000N
5001851188000144ISENTO        20091016SC011  0009175101P000000000810000000000000000000000000000000000000000000000000000000000N
5004039380000129255262442     20091016SC011  0009185101P000000001590000000000000000000000000000000000000000000000000000000000N
5001796973000141253521580     20091016SC011  0009195101P000000000680000000000000000000000000000000000000000000000000000000000N
5091802041004810254845746     20091016SC011  0009205101P000000003840000000000000000000000000000000000000000000000000000000000N
5006214567000147254751881     20091016SC011  0009215101P000000001160000000000000000000000000000000000000000000000000000000000N
5085369528000195ISENTO        20091016SC011  0009225101P000000000440000000000000000000000000000000000000000000000000000000000N
5082982075000180250067196     20091016SC011  0009235101P000000001039000000000000000000000000000000000000000000000000000000000N
5083798868000106ISENTO        20091016SC011  0009245101P000000001100000000000000000000000000000000000000000000000000000000000N
5002096770000105ISENTO        20091016SC011  0009255101P000000001000000000000000000000000000000000000000000000000000000000000N
50030318820005740450055833    20091016RS011  0009266101P000000008800000000000000000000000000000000000000000000000000000000000N
50030318820005740450055833    20091016RS011  0009276101P000000014400000000000000000000000000000000000000000000000000000000000N
5003850402000173ISENTO        20091016RS011  0009286949P000000001500000000000000000000000000000000000000000000000000000000000N
5083241349000142250449420     20091016SC011  0009295101P000000002800000000000000000000000000000000000000000000000000000000000N
5000310006000165252980115     20091016SC011  0009305101P000000000560000000000000000000000000000000000000000000000000000000000N
5079492518000140ISENTO        20091016SC011  0009315101P000000001450000000000000000000000000000000000000000000000000000000000N
5008020203000151ISENTO        20091016SC011  0009325101P000000000350000000000000000000000000000000000000000000000000000000000N
5002919668000162253822319     20091016SC011  0009335101P000000000350000000000000000000000000000000000000000000000000000000000N
5002781986000100ISENTO        20091016SC011  0009345101P000000000990000000000000000000000000000000000000000000000000000000000N
5006214567000147254751881     20091016SC011  0009355101P000000000900000000000000000000000000000000000000000000000000000000000N
5003658729000148255315392     20091016SC011  0009365101P000000000450000000000000000000000000000000000000000000000000000000000N
5001670569000127253499763     20091016SC011  0009375101P000000001350000000000000000000000000000000000000000000000000000000000N
5005974479000180254672728     20091016SC011  0009385101P000000001080000000000000000000000000000000000000000000000000000000000N
5005407823000150254496113     20091016SC011  0009395101P000000001050000000000000000000000000000000000000000000000000000000000N
5086375789000180ISENTO        20091016SC011  0009405101P000000004840000000000000000000000000000000000000000000000000000000000S
5004432327000193254293387     20091016SC011  0009415101P000000000980000000000000000000000000000000000000000000000000000000000N
5086375789000180ISENTO        20091019SC011  0009425101P000000003940000000000000000000000000000000000000000000000000000000000N
5086375870000160250044749     20091019SC011  0009435101P000000009450000000000000000000000000000000000000000000000000000000000N
5000374121000101252982215     20091019SC011  0009445101P000000001400000000000000000000000000000000000000000000000000000000000N
5001009640000125253234506     20091019SC011  0009455101P000000002420000000000000000000000000000000000000000000000000000000000N
5005044030000113254381979     20091019SC011  0009465101P000000002000000000000000000000000000000000000000000000000000000000000N
5003106170000224254990495     20091019SC011  0009475554P000000028000000000000000000000000000000000000000000000000000000000000S
5001493656000156ISENTO        20091019SC011  0009485101P000000000320000000000000000000000000000000000000000000000000000000000N
5003106170000224254990495     20091019SC011  0009495554P000000038720000000000000000000000000000000000000000000000000000000000N
5010305276000131255693281     20091019SC011  0009505101P000000000950000000000000000000000000000000000000000000000000000000000N
5004308098000108ISENTO        20091019SC011  0009515101P000000000840000000000000000000000000000000000000000000000000000000000N
5003461243000115ISENTO        20091019SC011  0009525101P000000002380000000000000000000000000000000000000000000000000000000000N
5078644424000186251151565     20091019SC011  0009535101P000000001150000000000000000000000000000000000000000000000000000000000N
5002096770000105ISENTO        20091019SC011  0009545101P000000001000000000000000000000000000000000000000000000000000000000000N
5001005030000153253221293     20091019SC011  0009555101P000000002880000000000000000000000000000000000000000000000000000000000N
5000562109000112ISENTO        20091019SC011  0009565101P000000001100000000000000000000000000000000000000000000000000000000000N
5082151481000109ISENTO        20091019SC011  0009575101P000000000350000000000000000000000000000000000000000000000000000000000N
5080758212000171ISENTO        20091019SC011  0009585101P000000000700000000000000000000000000000000000000000000000000000000000N
5006007029000181254698263     20091019SC011  0009595101P000000000350000000000000000000000000000000000000000000000000000000000N
5004667306000157254370624     20091019PB011  0009606101P000000001840000000000000000000000000000000000000000000000000000000000N
5002327254000144254354831     20091019SC011  0009615101P000000000760000000000000000000000000000000000000000000000000000000000N
5002327254000144254354831     20091019SC011  0009625101P000000000760000000000000000000000000000000000000000000000000000000000N
5000074957457972ISENTO        20091019SC011  0009635101P000000000660000000000000000000000000000000000000000000000000000000000N
5083171355000170ISENTO        20091019SC011  0009645101P000000003430000000000000000000000000000000000000000000000000000000000N
5007663140000865ISENTO        20091019SC011  0009655101P000000004000000000000000000000000000000000000000000000000000000000000N
5007663140000865ISENTO        20091019SC011  0009665101P000000000250000000000000000000000000000000000000000000000000000000000N
5008164087000144ISENTO        20091019SC011  0009675101P000000000850000000000000000000000000000000000000000000000000000000000N
5034028316002823ISENTO        20091019SC011  0009685101P000000000950000000000000000000000000000000000000000000000000000000000N
5034028316002823ISENTO        20091019SC011  0009695101P000000000950000000000000000000000000000000000000000000000000000000000N
5000065638433953ISENTO        20091019SC011  0009705101P000000000700000000000000000000000000000000000000000000000000000000000N
5004236207000110ISENTO        20091019SC011  0009715101P000000000900000000000000000000000000000000000000000000000000000000000S
5082637109000107ISENTO        20091019SC011  0009725101P000000004000000000000000000000000000000000000000000000000000000000000N
5006214567000147254751881     20091019SC011  0009735101P000000000350000000000000000000000000000000000000000000000000000000000N
5086375789000180ISENTO        20091019SC011  0009745101P000000000900000000000000000000000000000000000000000000000000000000000N
5085137370000128254806430     20091019SC011  0009755101P000000002760000000000000000000000000000000000000000000000000000000000N
5004792572000101254483984     20091019SC011  0009765101P000000000190000000000000000000000000000000000000000000000000000000000N
5001670569000127253499763     20091019SC011  0009775101P000000004500000000000000000000000000000000000000000000000000000000000N
5086375425000109250266776     20091019SC011  0009785101P000000007320000000000000000000000000000000000000000000000000000000000N
5081875973000176ISENTO        20091019SC011  0009795101P000000006000000000000000000000000000000000000000000000000000000000000N
5088616776000181029000386     20091019RS011  0009806949P000000001800000000000000000000000000000000000000000000000000000000000N
5097213409000128ISENTO        20091019RS011  0009816949P000000002150000000000000000000000000000000000000000000000000000000000N
5003850402000173ISENTO        20091019RS011  0009826949P000000001000000000000000000000000000000000000000000000000000000000000N
5004792572000101254483984     20091019SC011  0009835101P000000000570000000000000000000000000000000000000000000000000000000000N
5008715748000182255361980     20091019SC011  0009845101P000000000800000000000000000000000000000000000000000000000000000000000N
5000034520554934ISENTO        20091019SC011  0009855101P000000000300000000000000000000000000000000000000000000000000000000000N
5083241349000142250449420     20091019SC011  0009865101P000000001350000000000000000000000000000000000000000000000000000000000N
5002765277000130253764840     20091019SC011  0009875101P000000000350000000000000000000000000000000000000000000000000000000000N
5083102483000162ISENTO        20091019SC011  0009885101P000000000450000000000000000000000000000000000000000000000000000000000N
5084307974000102252920066     20091019SC011  0009895101P000000002900000000000000000000000000000000000000000000000000000000000N
5084307974000102252920066     20091019SC011  0009905101P000000002500000000000000000000000000000000000000000000000000000000000N
5002765277000130253764840     20091019SC011  0009915101P000000000630000000000000000000000000000000000000000000000000000000000N
5083102483000162ISENTO        20091019SC011  0009925101P000000001200000000000000000000000000000000000000000000000000000000000N
5010656517000197255807236     20091019SC011  0009935101P000000000980000000000000000000000000000000000000000000000000000000000N
5082657248000860ISENTO        20091019SC011  0009945101P000000000900000000000000000000000000000000000000000000000000000000000N
5082640533000100ISENTO        20091020SC011  0009955101P000000001200000000000000000000000000000000000000000000000000000000000N
5003603595000915ISENTO        20091020SC011  0009965101P000000001280000000000000000000000000000000000000000000000000000000000N
5001493656000156ISENTO        20091020SC011  0009975101P000000000720000000000000000000000000000000000000000000000000000000000N
5082658675000197ISENTO        20091020SC011  0009985101P000000000350000000000000000000000000000000000000000000000000000000000N
5002855420000185253822190     20091020SC011  0009995101P000000000350000000000000000000000000000000000000000000000000000000000N
5003960819000199ISENTO        20091020SC011  0010005101P000000001500000000000000000000000000000000000000000000000000000000000N
5006218282000184254750982     20091020SC011  0010015101P000000003800000000000000000000000000000000000000000000000000000000000N
5002779538000171253684870     20091020SC011  0010025101P000000003380000000000000000000000000000000000000000000000000000000000N
5005219367000114ISENTO        20091020SC011  0010035101P000000000680000000000000000000000000000000000000000000000000000000000N
5082666983000164251768970     20091020SC011  0010045101P000000000720000000000000000000000000000000000000000000000000000000000N
5082519190004029ISENTO        20091020SC011  0010055101P000000000970000000000000000000000000000000000000000000000000000000000N
5000109798000104ISENTO        20091020SC011  0010065101P000000001600000000000000000000000000000000000000000000000000000000000N
5000217640000158ISENTO        20091020SC011  0010075101P000000003290000000000000000000000000000000000000000000000000000000000N
5004143008000672254321704     20091020SC011  0010085101P000000000800000000000000000000000000000000000000000000000000000000000N
5083543546000116ISENTO        20091020SC011  0010095101P000000006450000000000000000000000000000000000000000000000000000000000N
5034028316002823ISENTO        20091020SC011  0010105101P000000001750000000000000000000000000000000000000000000000000000000000N
5010362287000153ISENTO        20091020SC011  0010115101P000000000850000000000000000000000000000000000000000000000000000000000N
5084307974000102252920066     20091020SC011  0010125101P000000033300000000000000000000000000000000000000000000000000000000000N
5007576233000186255318545     20091020SC011  0010135101P000000000300000000000000000000000000000000000000000000000000000000000N
5009073906000100ISENTO        20091020SC011  0010145101P000000000420000000000000000000000000000000000000000000000000000000000N
5001851188000144ISENTO        20091020SC011  0010155101P000000000930000000000000000000000000000000000000000000000000000000000N
5073258386000100252760310     20091020SC011  0010165101P000000004200000000000000000000000000000000000000000000000000000000000N
5079014809000122251254356     20091020SC011  0010175101P000000005350000000000000000000000000000000000000000000000000000000000N
5006966446000151254856446     20091020SC011  0010185101P000000002580000000000000000000000000000000000000000000000000000000000N
5001452938000105253819547     20091020SC011  0010195101P000000000550000000000000000000000000000000000000000000000000000000000N
5000085433012972ISENTO        20091020SC011  0010205101P000000000350000000000000000000000000000000000000000000000000000000000N
5006221993000108254754457     20091020SC011  0010215101P000000000700000000000000000000000000000000000000000000000000000000000N
5005129977000127116397086117  20091020SP011  0010226202P000000019720000000000000000000000000000000000000000000000000000000000N
5082645904000139250212498     20091020SC011  0010235101P000000000750000000000000000000000000000000000000000000000000000000000N
5083055632000180252230493     20091020SC011  0010245101P000000000600000000000000000000000000000000000000000000000000000000000N
5007314075000196ISENTO        20091020SC011  0010255101P000000001450000000000000000000000000000000000000000000000000000000000N
5045989050001820250594552     20091020SC011  0010265101P000000002670000000000000000000000000000000000000000000000000000000000N
5073587214000180252699807     20091021SC011  0010275101P000000001700000000000000000000000000000000000000000000000000000000000N
5003149117000120253793220     20091021SC011  0010285101P000000000435000000000000000000000000000000000000000000000000000000000N
5095758108000154ISENTO        20091021SC011  0010295101P000000000800000000000000000000000000000000000000000000000000000000000N
5004430100000109ISENTO        20091021SC011  0010305101P000000004360000000000000000000000000000000000000000000000000000000000N
5079416459000120251352846     20091021SC011  0010315101P000000000450000000000000000000000000000000000000000000000000000000000N
5079363495000173ISENTO        20091021SC011  0010325101P000000000800000000000000000000000000000000000000000000000000000000000N
5004943560000130254389287     20091021SC011  0010335101P000000002860000000000000000000000000000000000000000000000000000000000N
5000000339279958ISENTO        20091021SC011  0010345101P000000000400000000000000000000000000000000000000000000000000000000000N
5089548523000261251089100     20091021SC011  0010355101P000000002840000000000000000000000000000000000000000000000000000000000N
5095806048000106ISENTO        20091021SC011  0010365101P000000000480000000000000000000000000000000000000000000000000000000000N
5081336398000133251818616     20091021SC011  0010375101P000000000800000000000000000000000000000000000000000000000000000000000N
5030259220001924255008066     20091021SC011  0010385101P000000003000000000000000000000000000000000000000000000000000000000000N
5003555338000440149277257118  20091021SP011  0010396101P000000000950000000000000000000000000000000000000000000000000000000000N
5005393402000117ISENTO        20091021SC011  0010405101P000000003900000000000000000000000000000000000000000000000000000000000N
5002378660000136ISENTO        20091021SC011  0010415101P000000001500000000000000000000000000000000000000000000000000000000000N
5004288847000174254187358     20091021SC011  0010425101P000000004350000000000000000000000000000000000000000000000000000000000N
5001009640000125253234506     20091021SC011  0010435101P000000000760000000000000000000000000000000000000000000000000000000000N
5000151189000113ISENTO        20091021SC011  0010445101P000000000700000000000000000000000000000000000000000000000000000000000N
5083102483000162ISENTO        20091021SC011  0010455101P000000000630000000000000000000000000000000000000000000000000000000000N
5085120939000495ISENTO        20091021SC011  0010465101P000000003190000000000000000000000000000000000000000000000000000000000N
50597175530006172513474170045 20091021MG011  0010476949P000000001583200000000000000000000000000000000000000000000000000000000N
5004120039000101ISENTO        20091021SC011  0010485101P000000000730000000000000000000000000000000000000000000000000000000000N
5000050722816987ISENTO        20091021SC011  0010495101P000000001050000000000000000000000000000000000000000000000000000000000N
5010276273000117ISENTO        20091021SC011  0010505101P000000001270000000000000000000000000000000000000000000000000000000000N
5005593517000155ISENTO        20091021SC011  0010515101P000000001370000000000000000000000000000000000000000000000000000000000S
5000016661559934ISENTO        20091021SC011  0010525101P000000000500000000000000000000000000000000000000000000000000000000000N
5010656517000197255807236     20091021SC011  0010535101P000000000980000000000000000000000000000000000000000000000000000000000S
5082639477000186ISENTO        20091021SC011  0010545101P000000003000000000000000000000000000000000000000000000000000000000000N
5008278653000149ISENTO        20091021SC011  0010555101P000000001350000000000000000000000000000000000000000000000000000000000N
5003752211000179ISENTO        20091021SC011  0010565101P000000000750000000000000000000000000000000000000000000000000000000000N
5009228133000194255522509     20091021SC011  0010575101P000000000600000000000000000000000000000000000000000000000000000000000N
5010708759000187255823533     20091021SC011  0010585101P000000001450000000000000000000000000000000000000000000000000000000000N
5005593517000155ISENTO        20091021SC011  0010595101P000000001470000000000000000000000000000000000000000000000000000000000N
5072378102000822ISENTO        20091021PR011  0010606101P000000001350000000000000000000000000000000000000000000000000000000000N
5079416459000120251352846     20091021SC011  0010615101P000000000430000000000000000000000000000000000000000000000000000000000N
5004776032000134254333176     20091021SC011  0010625101P000000003650000000000000000000000000000000000000000000000000000000000N
5004776032000134254333176     20091021SC011  0010635101P000000003650000000000000000000000000000000000000000000000000000000000N
50052080630001510290442710    20091021RS011  0010646101P000000000650000000000000000000000000000000000000000000000000000000000N
5004776032000134254333176     20091021SC011  0010655101P000000003650000000000000000000000000000000000000000000000000000000000N
5081611931000128ISENTO        20091021SC011  0010665101P000000000990000000000000000000000000000000000000000000000000000000000N
5001009640000125253234506     20091021SC011  0010675101P000000001250000000000000000000000000000000000000000000000000000000000N
5003299417000195253912857     20091021SC011  0010685101P000000000950000000000000000000000000000000000000000000000000000000000N
5008979024000146255450508     20091021SC011  0010695101P000000000950000000000000000000000000000000000000000000000000000000000N
5082640533000100ISENTO        20091021SC011  0010705101P000000001800000000000000000000000000000000000000000000000000000000000N
5074005430000132ISENTO        20091021SC011  0010715101P000000002160000000000000000000000000000000000000000000000000000000000N
5010486427000103255768516     20091022SC011  0010725101P000000000950000000000000000000000000000000000000000000000000000000000N
5005060142000168254403506     20091022SC011  0010735101P000000000350000000000000000000000000000000000000000000000000000000000N
5082641390000143ISENTO        20091022SC011  0010745101P000000000560000000000000000000000000000000000000000000000000000000000N
5078644424000186251151565     20091022SC011  0010755101P000000001400000000000000000000000000000000000000000000000000000000000S
5079018024000128251254488     20091022SC011  0010765101P000000000330000000000000000000000000000000000000000000000000000000000N
5082888900000181ISENTO        20091022SC011  0010775101P000000000700000000000000000000000000000000000000000000000000000000000N
5000002024071953ISENTO        20091022SC011  0010785101P000000000750000000000000000000000000000000000000000000000000000000000N
5076861814000182251016994     20091022SC011  0010795101P000000001090000000000000000000000000000000000000000000000000000000000N
5083798884000107ISENTO        20091022SC011  0010805101P000000001300000000000000000000000000000000000000000000000000000000000N
5001967296000187253520061     20091022SC011  0010815101P000000002410000000000000000000000000000000000000000000000000000000000N
5004137811000190ISENTO        20091022SC011  0010825101P000000004094000000000000000000000000000000000000000000000000000000000N
5007332308000183ISENTO        20091022PR011  0010836101P000000003100000000000000000000000000000000000000000000000000000000000N
50030318820005740450055833    20091022RS011  0010846101P000000002700000000000000000000000000000000000000000000000000000000000N
50030318820005740450055833    20091022RS011  0010856101P000000013950000000000000000000000000000000000000000000000000000000000N
50079709190001570290452813    20091022RS011  0010866101P000000000950000000000000000000000000000000000000000000000000000000000N
5078644424000186251151565     20091022SC011  0010875101P000000001900000000000000000000000000000000000000000000000000000000000N
5005335851000109ISENTO        20091022SC011  0010885101P000000000416000000000000000000000000000000000000000000000000000000000N
5081336398000133251818616     20091022SC011  0010895101P000000000800000000000000000000000000000000000000000000000000000000000N
5072237233000113252677552     20091022SC011  0010905101P000000000350000000000000000000000000000000000000000000000000000000000N
5079375143000138ISENTO        20091022SC011  0010915101P000000000450000000000000000000000000000000000000000000000000000000000N
5084307974000102252920066     20091022SC011  0010925101P000000012200000000000000000000000000000000000000000000000000000000000N
5003850402000173ISENTO        20091022RS011  0010936949P000000005250000000000000000000000000000000000000000000000000000000000N
5075301630000103250208024     20091022SC011  0010945101P000000000700000000000000000000000000000000000000000000000000000000000N
5000057480915004ISENTO        20091022RS011  0010956101P000000000900000000000000000000000000000000000000000000000000000000000N
5001966810000160ISENTO        20091022SC011  0010965101P000000001200000000000000000000000000000000000000000000000000000000000N
5007215271000103254924476     20091022SC011  0010975101P000000000600000000000000000000000000000000000000000000000000000000000N
5073763666000175ISENTO        20091022SC011  0010985101P000000000300000000000000000000000000000000000000000000000000000000000N
5081336398000133251818616     20091022SC011  0010995101P000000004050000000000000000000000000000000000000000000000000000000000N
5091802041004810254845746     20091022SC011  0011005101P000000005705000000000000000000000000000000000000000000000000000000000N
5006232772000135ISENTO        20091022SC011  0011015101P000000000700000000000000000000000000000000000000000000000000000000000N
5079375986000134ISENTO        20091022SC011  0011025101P000000001050000000000000000000000000000000000000000000000000000000000N
5004432327000193254293387     20091022SC011  0011035101P000000001100000000000000000000000000000000000000000000000000000000000N
5081868390000118252045289     20091022SC011  0011045101P000000000520000000000000000000000000000000000000000000000000000000000N
5003603595000915ISENTO        20091022SC011  0011055101P000000002500000000000000000000000000000000000000000000000000000000000N
5082636887000173250289938     20091022SC011  0011065101P000000001660000000000000000000000000000000000000000000000000000000000N
5005810004000159254614299     20091022SC011  0011075101P000000002400000000000000000000000000000000000000000000000000000000000N
5082981721000194ISENTO        20091022SC011  0011085101P000000012500000000000000000000000000000000000000000000000000000000000N
5082639477000186ISENTO        20091022SC011  0011095101P000000002325000000000000000000000000000000000000000000000000000000000N
5004774839000138ISENTO        20091022SC011  0011105101P000000000910000000000000000000000000000000000000000000000000000000000N
5084293430000139250124114     20091022SC011  0011115101P000000001500000000000000000000000000000000000000000000000000000000000N
5005335851000109ISENTO        20091022SC011  0011125101P000000001600000000000000000000000000000000000000000000000000000000000N
5003968890000118255139705     20091022SC011  0011135101P000000002160000000000000000000000000000000000000000000000000000000000N
5000540364000164253050910     20091022SC011  0011145101P000000000990000000000000000000000000000000000000000000000000000000000N
5083545756000143ISENTO        20091023SC011  0011155101P000000004900000000000000000000000000000000000000000000000000000000000N
5076875020000178252677560     20091023SC011  0011165101P000000004200000000000000000000000000000000000000000000000000000000000N
5076875020000178252677560     20091023SC011  0011175101P000000004200000000000000000000000000000000000000000000000000000000000N
5002718425000166ISENTO        20091023SC011  0011185101P000000001390000000000000000000000000000000000000000000000000000000000N
5083545756000143ISENTO        20091023SC011  0011195101P000000004900000000000000000000000000000000000000000000000000000000000N
5002150039000110253582830     20091023SC011  0011205101P000000003650000000000000000000000000000000000000000000000000000000000N
5082649252000100250137518     20091023SC011  0011215101P000000004660000000000000000000000000000000000000000000000000000000000N
5076849736000109ISENTO        20091023SC011  0011225101P000000001120000000000000000000000000000000000000000000000000000000000N
5030259220001924255008066     20091023SC011  0011235101P000000000639000000000000000000000000000000000000000000000000000000000N
5083779496000170ISENTO        20091023SC011  0011245101P000000000800000000000000000000000000000000000000000000000000000000000N
5000695578000100ISENTO        20091023SC011  0011255101P000000001000000000000000000000000000000000000000000000000000000000000N
5005859349000105ISENTO        20091023SC011  0011265101P000000003200000000000000000000000000000000000000000000000000000000000N
5082639451000138ISENTO        20091023SC011  0011275101P000000000600000000000000000000000000000000000000000000000000000000000N
5082639451000138ISENTO        20091023SC011  0011285101P000000000600000000000000000000000000000000000000000000000000000000000N
5082639451000138ISENTO        20091023SC011  0011295101P000000000600000000000000000000000000000000000000000000000000000000000N
5082639451000138ISENTO        20091023SC011  0011305101P000000000800000000000000000000000000000000000000000000000000000000000N
5082639451000138ISENTO        20091023SC011  0011315101P000000000800000000000000000000000000000000000000000000000000000000000N
5004700236000191254337430     20091023SC011  0011325101P000000002800000000000000000000000000000000000000000000000000000000000N
5062800446001634253821827     20091023SC011  0011335101P000000004900000000000000000000000000000000000000000000000000000000000N
5078644424000186251151565     20091023SC011  0011345101P000000000300000000000000000000000000000000000000000000000000000000000N
5082658675000197ISENTO        20091023SC011  0011355101P000000000260000000000000000000000000000000000000000000000000000000000N
5008729429000126255366426     20091023SC011  0011365101P000000000800000000000000000000000000000000000000000000000000000000000N
5083061234000176252262026     20091023SC011  0011375101P000000001220000000000000000000000000000000000000000000000000000000000N
5083102764000115ISENTO        20091023SC011  0011385101P000000001850000000000000000000000000000000000000000000000000000000000N
5003960819000199ISENTO        20091023SC011  0011395101P000000000750000000000000000000000000000000000000000000000000000000000N
5000597312000124ISENTO        20091023SC011  0011405101P000000006280000000000000000000000000000000000000000000000000000000000S
5003461243000115ISENTO        20091023SC011  0011415101P000000001290000000000000000000000000000000000000000000000000000000000N
5001851188000144ISENTO        20091023SC011  0011425101P000000000810000000000000000000000000000000000000000000000000000000000N
5008217565000137ISENTO        20091023SC011  0011435101P000000000700000000000000000000000000000000000000000000000000000000000N
5084307974000102252920066     20091023SC011  0011445101P000000009000000000000000000000000000000000000000000000000000000000000N
5082128927000176252354567     20091023SC011  0011455101P000000001300000000000000000000000000000000000000000000000000000000000N
5076861814000182251016994     20091023SC011  0011465101P000000001020000000000000000000000000000000000000000000000000000000000N
5083102798000100ISENTO        20091023SC011  0011475101P000000000900000000000000000000000000000000000000000000000000000000000N
5083102798000100ISENTO        20091023SC011  0011485101P000000000900000000000000000000000000000000000000000000000000000000000N
5083102798000100ISENTO        20091023SC011  0011495101P000000001000000000000000000000000000000000000000000000000000000000000N
5005393402000117ISENTO        20091023SC011  0011505101P000000000350000000000000000000000000000000000000000000000000000000000N
5085120939000495ISENTO        20091023SC011  0011515101P000000000720000000000000000000000000000000000000000000000000000000000N
5005467641000174254516793     20091023SC011  0011525101P000000000720000000000000000000000000000000000000000000000000000000000N
5005572593000184254541240     20091023SC011  0011535101P000000001200000000000000000000000000000000000000000000000000000000000N
5083102798000100ISENTO        20091023SC011  0011545101P000000005680000000000000000000000000000000000000000000000000000000000N
5083102798000100ISENTO        20091023SC011  0011555101P000000007550000000000000000000000000000000000000000000000000000000000N
5075304766000169ISENTO        20091023SC011  0011565101P000000001400000000000000000000000000000000000000000000000000000000000N
5004196935000227116064101112  20091023SP011  0011576949P000000000382400000000000000000000000000000000000000000000000000000000N
5072332687000173252678362     20091023SC011  0011585101P000000000379000000000000000000000000000000000000000000000000000000000N
5095806048000106ISENTO        20091026SC011  0011595101P000000000750000000000000000000000000000000000000000000000000000000000N
5004039380000129255262442     20091026SC011  0011605101P000000001700000000000000000000000000000000000000000000000000000000000N
5080429723000140251610810     20091026SC011  0011615101P000000001440000000000000000000000000000000000000000000000000000000000N
5005343620000147ISENTO        20091026SC011  0011625101P000000000700000000000000000000000000000000000000000000000000000000000N
5082636820000139250210754     20091026SC011  0011635101P000000000478500000000000000000000000000000000000000000000000000000000N
5076308287000183ISENTO        20091026SC011  0011645101P000000000900000000000000000000000000000000000000000000000000000000000N
5004024038000155ISENTO        20091026SC011  0011655101P000000002090000000000000000000000000000000000000000000000000000000000N
5003960819000199ISENTO        20091026SC011  0011665101P000000000700000000000000000000000000000000000000000000000000000000000N
5002765277000130253764840     20091026SC011  0011675101P000000000300000000000000000000000000000000000000000000000000000000000N
5002308456000149253610010     20091026SC011  0011685101P000000002240000000000000000000000000000000000000000000000000000000000N
5001005030000153253221293     20091026SC011  0011695101P000000002360000000000000000000000000000000000000000000000000000000000N
5002145793000596ISENTO        20091026SC011  0011705101P000000000800000000000000000000000000000000000000000000000000000000000N
5010863812000114ISENTO        20091026SC011  0011715101P000000000300000000000000000000000000000000000000000000000000000000000N
5004050257000109254115314     20091026SC011  0011725101P000000001300000000000000000000000000000000000000000000000000000000000N
5007725437000131255097611     20091026SC011  0011735101P000000000330000000000000000000000000000000000000000000000000000000000N
5082888900000181ISENTO        20091026SC011  0011745101P000000001500000000000000000000000000000000000000000000000000000000000N
5005577353000172ISENTO        20091026SC011  0011755101P000000001680000000000000000000000000000000000000000000000000000000000N
5004288847000174254187358     20091026SC011  0011765101P000000001200000000000000000000000000000000000000000000000000000000000N
5009464019000163ISENTO        20091026SC011  0011775101P000000000980000000000000000000000000000000000000000000000000000000000N
5082639170000185250269910     20091026SC011  0011785101P000000000450000000000000000000000000000000000000000000000000000000000N
5002100608000202ISENTO        20091026SC011  0011795101P000000002150000000000000000000000000000000000000000000000000000000000N
5083102483000162ISENTO        20091026SC011  0011805101P000000000810000000000000000000000000000000000000000000000000000000000N
5083102483000162ISENTO        20091026SC011  0011815101P000000001600000000000000000000000000000000000000000000000000000000000N
5004039380000129255262442     20091026SC011  0011825101P000000001500000000000000000000000000000000000000000000000000000000000N
5081293912000109251769860     20091026SC011  0011835101P000000007620000000000000000000000000000000000000000000000000000000000N
5003726261000181ISENTO        20091026SC011  0011845101P000000001600000000000000000000000000000000000000000000000000000000000N
5006980064010730ISENTO        20091026SC011  0011855916P000000009800000000000000000000000000000000000000000000000000000000000N
5005421267000176ISENTO        20091026SC011  0011865101P000000000600000000000000000000000000000000000000000000000000000000000N
5095806048000106ISENTO        20091026SC011  0011875101P000000000650000000000000000000000000000000000000000000000000000000000N
5004011349000180254091768     20091026SC011  0011885101P000000001970000000000000000000000000000000000000000000000000000000000N
5005335851000109ISENTO        20091026SC011  0011895101P000000000350000000000000000000000000000000000000000000000000000000000N
50886104150001280290003792    20091026RS011  0011906101P000000006370000000000000000000000000000000000000000000000000000000000N
5004147576000137255179251     20091026SC011  0011915101P000000002085000000000000000000000000000000000000000000000000000000000N
5003850402000173ISENTO        20091026RS011  0011926949P000000003000000000000000000000000000000000000000000000000000000000000N
5005044030000113254381979     20091026SC011  0011935101P000000001000000000000000000000000000000000000000000000000000000000000N
5095758108000154ISENTO        20091026SC011  0011945101P000000001160000000000000000000000000000000000000000000000000000000000N
5000597312000124ISENTO        20091026SC011  0011955101P000000004880000000000000000000000000000000000000000000000000000000000N
5006323975000137ISENTO        20091026SC011  0011965101P000000000660000000000000000000000000000000000000000000000000000000000N
5084429869000308252263324     20091026SC011  0011975101P000000000900000000000000000000000000000000000000000000000000000000000N
5085194520000135252375190     20091026SC011  0011985101P000000000350000000000000000000000000000000000000000000000000000000000N
5008966535000123255439997     20091026SC011  0011995101P000000000970000000000000000000000000000000000000000000000000000000000N
5003294669000121253917409     20091026SC011  0012005101P000000001650000000000000000000000000000000000000000000000000000000000N
5000000000000000ISENTO        20091026SC011  0012015101P000000000750000000000000000000000000000000000000000000000000000000000S
5010708759000187255823533     20091026SC011  0012025101P000000002100000000000000000000000000000000000000000000000000000000000N
5095806048000106ISENTO        20091027SC011  0012035101P000000000750000000000000000000000000000000000000000000000000000000000N
5009300894000100255671920     20091027SC011  0012045101P000000001080000000000000000000000000000000000000000000000000000000000N
5004646110000186ISENTO        20091027SC011  0012055101P000000000700000000000000000000000000000000000000000000000000000000000N
5083824789000122ISENTO        20091027SC011  0012065101P000000001580000000000000000000000000000000000000000000000000000000000N
5081019002000124251782000     20091027SC011  0012075101P000000001290000000000000000000000000000000000000000000000000000000000N
5083107714000120250257645     20091027SC011  0012085101P000000000700000000000000000000000000000000000000000000000000000000000N
5082645904000139250212498     20091027SC011  0012095101P000000000700000000000000000000000000000000000000000000000000000000000N
5083779496000170ISENTO        20091027SC011  0012105101P000000001800000000000000000000000000000000000000000000000000000000000N
50030318820005740450055833    20091027RS011  0012116101P000000001650000000000000000000000000000000000000000000000000000000000N
5002575998000188253666406     20091027SC011  0012125101P000000001346000000000000000000000000000000000000000000000000000000000N
5008715748000182255361980     20091027SC011  0012135101P000000007086400000000000000000000000000000000000000000000000000000000N
5002908621000101253857589     20091027SC011  0012145101P000000001500000000000000000000000000000000000000000000000000000000000N
5085107480000147ISENTO        20091027SC011  0012155101P000000001050000000000000000000000000000000000000000000000000000000000N
5081336398000133251818616     20091027SC011  0012165101P000000001350000000000000000000000000000000000000000000000000000000000N
5081019002000124251782000     20091027SC011  0012175101P000000000810000000000000000000000000000000000000000000000000000000000N
5001362431000160255066899     20091027SC011  0012185101P000000001200000000000000000000000000000000000000000000000000000000000N
5005346894000190ISENTO        20091027SC011  0012195101P000000002275000000000000000000000000000000000000000000000000000000000N
5072332687000173252678362     20091027SC011  0012205101P000000000300000000000000000000000000000000000000000000000000000000000N
5085120939000495ISENTO        20091027SC011  0012215101P000000000380000000000000000000000000000000000000000000000000000000000N
5000056589654972ISENTO        20091027SC011  0012225101P000000000950000000000000000000000000000000000000000000000000000000000N
5075304766000169ISENTO        20091027SC011  0012235101P000000001400000000000000000000000000000000000000000000000000000000000N
5002192228000156255045859     20091027SC011  0012245101P000000003000000000000000000000000000000000000000000000000000000000000N
5084429869000308252263324     20091027SC011  0012255101P000000001900000000000000000000000000000000000000000000000000000000000N
5006099381000194254840540     20091027SC011  0012265101P000000000740000000000000000000000000000000000000000000000000000000000N
5000109798000104ISENTO        20091027SC011  0012275101P000000001600000000000000000000000000000000000000000000000000000000000N
5082639477000186ISENTO        20091027SC011  0012285101P000000003000000000000000000000000000000000000000000000000000000000000N
5002378660000136ISENTO        20091028SC011  0012295101P000000001050000000000000000000000000000000000000000000000000000000000N
5095806048000106ISENTO        20091028SC011  0012305101P000000000420000000000000000000000000000000000000000000000000000000000N
5083102798000100ISENTO        20091028SC011  0012315101P000000000700000000000000000000000000000000000000000000000000000000000N
5005343620000147ISENTO        20091028SC011  0012325101P000000002200000000000000000000000000000000000000000000000000000000000N
5007663140000865ISENTO        20091028SC011  0012335101P000000001800000000000000000000000000000000000000000000000000000000000N
5003603595000915ISENTO        20091028SC011  0012345101P000000002500000000000000000000000000000000000000000000000000000000000N
5081876674000156252028260     20091028SC011  0012355101P000000002700000000000000000000000000000000000000000000000000000000000N
5082161688000156ISENTO        20091028SC011  0012365101P000000000860000000000000000000000000000000000000000000000000000000000N
5082161688000156ISENTO        20091028SC011  0012375101P000000000450000000000000000000000000000000000000000000000000000000000N
5006940817000126254831494     20091028SC011  0012385101P000000000750000000000000000000000000000000000000000000000000000000000S
5003979360000175254098460     20091028SC011  0012395101P000000001600000000000000000000000000000000000000000000000000000000000N
5008482154000179255308736     20091028SC011  0012405101P000000000260000000000000000000000000000000000000000000000000000000000N
5004380243000153254244246     20091028SC011  0012415101P000000001050000000000000000000000000000000000000000000000000000000000N
5073973596000180252811380     20091028SC011  0012425101P000000001105000000000000000000000000000000000000000000000000000000000N
5009486676000101255665385     20091028SC011  0012435101P000000001500000000000000000000000000000000000000000000000000000000000N
5082639170000185250269910     20091028SC011  0012445101P000000001000000000000000000000000000000000000000000000000000000000000N
5007576233000186255318545     20091028SC011  0012455101P000000000350000000000000000000000000000000000000000000000000000000000N
5088616776000181029000386     20091028RS011  0012466949P000000002000000000000000000000000000000000000000000000000000000000000N
5088616776000181029000386     20091028RS011  0012476101P000000001900000000000000000000000000000000000000000000000000000000000N
5004995402000124ISENTO        20091028RS011  0012486101P000000002602500000000000000000000000000000000000000000000000000000000N
5003850402000173ISENTO        20091028RS011  0012496949P000000002000000000000000000000000000000000000000000000000000000000000N
5061797924001984206210719114  20091028SP011  0012506949P000000007182900000000000000000000000000000000000000000000000000000000N
5079501912000105251379396     20091028SC011  0012515101P000000001040000000000000000000000000000000000000000000000000000000000N
5000061924580900ISENTO        20091028SC011  0012525101P000000001200000000000000000000000000000000000000000000000000000000000N
5083102442000176ISENTO        20091028SC011  0012535101P000000004860000000000000000000000000000000000000000000000000000000000N
5083102442000176ISENTO        20091028SC011  0012545101P000000004530000000000000000000000000000000000000000000000000000000000N
5083102442000176ISENTO        20091028SC011  0012555101P000000001950000000000000000000000000000000000000000000000000000000000N
5083102442000176ISENTO        20091028SC011  0012565101P000000004170000000000000000000000000000000000000000000000000000000000N
5083102442000176ISENTO        20091028SC011  0012575101P000000003850000000000000000000000000000000000000000000000000000000000N
5083102442000176ISENTO        20091028SC011  0012585101P000000000590000000000000000000000000000000000000000000000000000000000N
5004896732000162254955410     20091029SC011  0012595101P000000001500000000000000000000000000000000000000000000000000000000000N
5083102483000162ISENTO        20091029SC011  0012605101P000000000780000000000000000000000000000000000000000000000000000000000N
5086375870000160250044749     20091029SC011  0012615101P000000001800000000000000000000000000000000000000000000000000000000000N
5001966810000160ISENTO        20091029SC011  0012625101P000000001770000000000000000000000000000000000000000000000000000000000N
5083102483000162ISENTO        20091029SC011  0012635101P000000000330000000000000000000000000000000000000000000000000000000000N
5081526915000137ISENTO        20091029SC011  0012645101P000000001250000000000000000000000000000000000000000000000000000000000N
5000760773000176ISENTO        20091029SC011  0012655101P000000002460000000000000000000000000000000000000000000000000000000000N
5006008402000119ISENTO        20091029SC011  0012665101P000000001100000000000000000000000000000000000000000000000000000000000N
50061228560001160290421012    20091029RS011  0012676101P000000001000000000000000000000000000000000000000000000000000000000000N
5095758108000154ISENTO        20091029SC011  0012685101P000000001050000000000000000000000000000000000000000000000000000000000N
5006940817000126254831494     20091029SC011  0012695101P000000000350000000000000000000000000000000000000000000000000000000000N
5085175586000188252351711     20091029SC011  0012705101P000000000600000000000000000000000000000000000000000000000000000000000N
5007663140000865ISENTO        20091029SC011  0012715101P000000002880000000000000000000000000000000000000000000000000000000000N
5000562109000112ISENTO        20091029SC011  0012725101P000000000800000000000000000000000000000000000000000000000000000000000N
5002982209000123253859344     20091029SC011  0012735101P000000000900000000000000000000000000000000000000000000000000000000000N
5097477426000172ISENTO        20091029SC011  0012745101P000000003930000000000000000000000000000000000000000000000000000000000N
5000006186020975ISENTO        20091029SC011  0012755101P000000002170000000000000000000000000000000000000000000000000000000000N
5086375789000180ISENTO        20091029SC011  0012765101P000000008380000000000000000000000000000000000000000000000000000000000N
5000055620000128ISENTO        20091029SC011  0012775101P000000001600000000000000000000000000000000000000000000000000000000000N
5084229889000173ISENTO        20091029SC011  0012785101P000000008000000000000000000000000000000000000000000000000000000000000N
5080943624000181ISENTO        20091029SC011  0012795101P000000000690000000000000000000000000000000000000000000000000000000000N
5002403671000129254307531     20091029SC011  0012805101P000000001400000000000000000000000000000000000000000000000000000000000N
5000078614570953ISENTO        20091029SC011  0012815101P000000000730000000000000000000000000000000000000000000000000000000000N
5083779496000170ISENTO        20091029SC011  0012825101P000000001600000000000000000000000000000000000000000000000000000000000N
5082699588000188252261518     20091029SC011  0012835101P000000000600000000000000000000000000000000000000000000000000000000000N
5075304766000169ISENTO        20091029SC011  0012845101P000000000960000000000000000000000000000000000000000000000000000000000N
5000071218599987ISENTO        20091029SC011  0012855101P000000000620000000000000000000000000000000000000000000000000000000000N
5000001000246965ISENTO        20091029SC011  0012865101P000000001750000000000000000000000000000000000000000000000000000000000N
5003960819000199ISENTO        20091030SC011  0012875101P000000001500000000000000000000000000000000000000000000000000000000000N
5008283725000146ISENTO        20091030SC011  0012885101P000000003480000000000000000000000000000000000000000000000000000000000N
50083784980001320290461006    20091030RS011  0012896101P000000001600000000000000000000000000000000000000000000000000000000000N
5007663140000865ISENTO        20091030SC011  0012905101P000000000164000000000000000000000000000000000000000000000000000000000N
5000098851306915ISENTO        20091030SC011  0012915101P000000001500000000000000000000000000000000000000000000000000000000000N
5078644424000186251151565     20091030SC011  0012925101P000000002250000000000000000000000000000000000000000000000000000000000N
50030318820005740450055833    20091030RS011  0012936101P000000001950000000000000000000000000000000000000000000000000000000000N
50030318820005740450055833    20091030RS011  0012946101P000000007350000000000000000000000000000000000000000000000000000000000N
5003850402000173ISENTO        20091030RS011  0012956949P000000003500000000000000000000000000000000000000000000000000000000000N
5083779496000170ISENTO        20091030SC011  0012965101P000000001400000000000000000000000000000000000000000000000000000000000N
5005612610000160ISENTO        20091030SC011  0012975101P000000000500000000000000000000000000000000000000000000000000000000000N
5079233672000105252199782     20091030SC011  0012985101P000000020300000000000000000000000000000000000000000000000000000000000N
5082115569000167252067053     20091030SC011  0012995101P000000001880000000000000000000000000000000000000000000000000000000000N
5083638304000106ISENTO        20091030SC011  0013005101P000000001260000000000000000000000000000000000000000000000000000000000N
5002145793000324ISENTO        20091030SC011  0013015101P000000000800000000000000000000000000000000000000000000000000000000000N
5000202187000106ISENTO        20091030SC011  0013025101P000000000550000000000000000000000000000000000000000000000000000000000N
5000894553000135ISENTO        20091030SC011  0013035101P000000000700000000000000000000000000000000000000000000000000000000000N
5082663733000170ISENTO        20091030SC011  0013045101P000000000750000000000000000000000000000000000000000000000000000000000N
5002067328000150253560713     20091030SC011  0013055101P000000001320000000000000000000000000000000000000000000000000000000000N
5083241349000142250449420     20091030SC011  0013065101P000000001800000000000000000000000000000000000000000000000000000000000N
5000001000246965ISENTO        20091030SC011  0013075101P000000000411000000000000000000000000000000000000000000000000000000000N
5082639477000186ISENTO        20091030SC011  0013085101P000000001500000000000000000000000000000000000000000000000000000000000N
5081336398000133251818616     20091030SC011  0013095101P000000004850000000000000000000000000000000000000000000000000000000000N
5004043924000126ISENTO        20091030SC011  0013105101P000000001800000000000000000000000000000000000000000000000000000000000N
9003731084000121254065279     500000070751000007079900001417                                                                 1
