1003731084000121254065279     WORK RECICLOS LTDA                 BLUMENAU                      SC47332366762009100120091031331
11RUA PARA                          00354                      ITOUPAVA SECA  89030300GIVANILDO MARCELO MACHADO   000000000000
5004667306000157254370624     20091019PB011  0009606101P000000001840000000000000000000000000000000000000000000000000000000000N
9003731084000121254065279     500000000151000000019900000005                                                                 1
