1003731084000121254065279     WORK RECICLOS LTDA                 BLUMENAU                      SC47332366762009100120091031331
11RUA PARA                          00354                      ITOUPAVA SECA  89030300GIVANILDO MARCELO MACHADO   000000000000
5078685344000179ISENTO        20091013PR011  0008416101P000000001900000000000000000000000000000000000000000000000000000000000N
5072378102000822ISENTO        20091021PR011  0010606101P000000001350000000000000000000000000000000000000000000000000000000000N
5007332308000183ISENTO        20091022PR011  0010836101P000000003100000000000000000000000000000000000000000000000000000000000N
9003731084000121254065279     500000000351000000039900000009                                                                 1
