1003731084000121254065279     WORK RECICLOS LTDA                 BLUMENAU                      SC47332366762009100120091031331
11RUA PARA                          00354                      ITOUPAVA SECA  89030300GIVANILDO MARCELO MACHADO   000000000000
50030318820005740450055833    20091002RS011  0006646101P000000008200000000000000000000000000000000000000000000000000000000000N
5004995402000124ISENTO        20091002RS011  0006656101P000000001755000000000000000000000000000000000000000000000000000000000S
5004995402000124ISENTO        20091002RS011  0006666101P000000000540000000000000000000000000000000000000000000000000000000000N
5003850402000173ISENTO        20091002RS011  0006676949P000000001800000000000000000000000000000000000000000000000000000000000N
5003850402000173ISENTO        20091002RS011  0006706949P000000000300000000000000000000000000000000000000000000000000000000000N
50001696040001661570027061    20091006RS011  0007106101P000000001250000000000000000000000000000000000000000000000000000000000N
50029374250001570290333148    20091006RS011  0007146101P000000000850000000000000000000000000000000000000000000000000000000000N
5004995402000124ISENTO        20091006RS011  0007156949P000000009800000000000000000000000000000000000000000000000000000000000N
5004995402000124ISENTO        20091006RS011  0007166101P000000001575000000000000000000000000000000000000000000000000000000000N
5003850402000173ISENTO        20091006RS011  0007176949P000000002000000000000000000000000000000000000000000000000000000000000N
50946160590003140290411386    20091009RS011  0007896101P000000005110000000000000000000000000000000000000000000000000000000000N
50913686700001100290150558    20091009RS011  0007906101P000000001600000000000000000000000000000000000000000000000000000000000N
50886167760003430870084364    20091009RS011  0007936949P000000005400000000000000000000000000000000000000000000000000000000000N
50030318820005740450055833    20091009RS011  0007976101P000000013100000000000000000000000000000000000000000000000000000000000N
50030318820005740450055833    20091009RS011  0007986101P000000001950000000000000000000000000000000000000000000000000000000000N
5004995402000124ISENTO        20091009RS011  0008026101P000000000315000000000000000000000000000000000000000000000000000000000N
5003850402000173ISENTO        20091009RS011  0008046949P000000007000000000000000000000000000000000000000000000000000000000000N
5088616776000181029000386     20091013RS011  0008346949P000000002000000000000000000000000000000000000000000000000000000000000N
5089088462000116ISENTO        20091013RS011  0008356101P000000004400000000000000000000000000000000000000000000000000000000000N
50946160590003140290411386    20091013RS011  0008366101P000000001080000000000000000000000000000000000000000000000000000000000N
5004995402000124ISENTO        20091013RS011  0008376101P000000000810000000000000000000000000000000000000000000000000000000000N
5003850402000173ISENTO        20091013RS011  0008386949P000000010000000000000000000000000000000000000000000000000000000000000N
50061228560001160290421012    20091014RS011  0008686101P000000002800000000000000000000000000000000000000000000000000000000000N
5003850402000173ISENTO        20091014RS011  0008696949P000000002000000000000000000000000000000000000000000000000000000000000N
50030318820005740450055833    20091016RS011  0009266101P000000008800000000000000000000000000000000000000000000000000000000000N
50030318820005740450055833    20091016RS011  0009276101P000000014400000000000000000000000000000000000000000000000000000000000N
5003850402000173ISENTO        20091016RS011  0009286949P000000001500000000000000000000000000000000000000000000000000000000000N
5088616776000181029000386     20091019RS011  0009806949P000000001800000000000000000000000000000000000000000000000000000000000N
5097213409000128ISENTO        20091019RS011  0009816949P000000002150000000000000000000000000000000000000000000000000000000000N
5003850402000173ISENTO        20091019RS011  0009826949P000000001000000000000000000000000000000000000000000000000000000000000N
50052080630001510290442710    20091021RS011  0010646101P000000000650000000000000000000000000000000000000000000000000000000000N
50030318820005740450055833    20091022RS011  0010846101P000000002700000000000000000000000000000000000000000000000000000000000N
50030318820005740450055833    20091022RS011  0010856101P000000013950000000000000000000000000000000000000000000000000000000000N
50079709190001570290452813    20091022RS011  0010866101P000000000950000000000000000000000000000000000000000000000000000000000N
5003850402000173ISENTO        20091022RS011  0010936949P000000005250000000000000000000000000000000000000000000000000000000000N
5000057480915004ISENTO        20091022RS011  0010956101P000000000900000000000000000000000000000000000000000000000000000000000N
50886104150001280290003792    20091026RS011  0011906101P000000006370000000000000000000000000000000000000000000000000000000000N
5003850402000173ISENTO        20091026RS011  0011926949P000000003000000000000000000000000000000000000000000000000000000000000N
50030318820005740450055833    20091027RS011  0012116101P000000001650000000000000000000000000000000000000000000000000000000000N
5088616776000181029000386     20091028RS011  0012466949P000000002000000000000000000000000000000000000000000000000000000000000N
5088616776000181029000386     20091028RS011  0012476101P000000001900000000000000000000000000000000000000000000000000000000000N
5004995402000124ISENTO        20091028RS011  0012486101P000000002602500000000000000000000000000000000000000000000000000000000N
5003850402000173ISENTO        20091028RS011  0012496949P000000002000000000000000000000000000000000000000000000000000000000000N
50061228560001160290421012    20091029RS011  0012676101P000000001000000000000000000000000000000000000000000000000000000000000N
50083784980001320290461006    20091030RS011  0012896101P000000001600000000000000000000000000000000000000000000000000000000000N
50030318820005740450055833    20091030RS011  0012936101P000000001950000000000000000000000000000000000000000000000000000000000N
50030318820005740450055833    20091030RS011  0012946101P000000007350000000000000000000000000000000000000000000000000000000000N
5003850402000173ISENTO        20091030RS011  0012956949P000000003500000000000000000000000000000000000000000000000000000000000N
9003731084000121254065279     500000004851000000489900000099                                                                 1
