1003731084000121254065279     WORK RECICLOS LTDA                 BLUMENAU                      SC47332366762009100120091031331
11RUA PARA                          00354                      ITOUPAVA SECA  89030300GIVANILDO MARCELO MACHADO   000000000000
5005129977000127116397086117  20091020SP011  0010226202P000000019720000000000000000000000000000000000000000000000000000000000N
5003555338000440149277257118  20091021SP011  0010396101P000000000950000000000000000000000000000000000000000000000000000000000N
5004196935000227116064101112  20091023SP011  0011576949P000000000382400000000000000000000000000000000000000000000000000000000N
5061797924001984206210719114  20091028SP011  0012506949P000000007182900000000000000000000000000000000000000000000000000000000N
9003731084000121254065279     500000000451000000049900000011                                                                 1
